{
  "_format": "hh-sol-artifact-1",
  "contractName": "MyContract",
  "sourceName": "contracts/ReadOracle.sol",
  "abi": [
    {
      "inputs": [
        {
          "internalType": "address payable",
          "name": "_tellorAddress",
          "type": "address"
        }
      ],
      "stateMutability": "nonpayable",
      "type": "constructor"
    },
    {
      "inputs": [],
      "name": "getBtcSpotPrice",
      "outputs": [
        {
          "internalType": "uint256",
          "name": "",
          "type": "uint256"
        }
      ],
      "stateMutability": "view",
      "type": "function"
    },
    {
      "inputs": [
        {
          "internalType": "bytes32",
          "name": "_queryId",
          "type": "bytes32"
        },
        {
          "internalType": "uint256",
          "name": "_timestamp",
          "type": "uint256"
        }
      ],
      "name": "getDataAfter",
      "outputs": [
        {
          "internalType": "bytes",
          "name": "_value",
          "type": "bytes"
        },
        {
          "internalType": "uint256",
          "name": "_timestampRetrieved",
          "type": "uint256"
        }
      ],
      "stateMutability": "view",
      "type": "function"
    },
    {
      "inputs": [
        {
          "internalType": "bytes32",
          "name": "_queryId",
          "type": "bytes32"
        },
        {
          "internalType": "uint256",
          "name": "_timestamp",
          "type": "uint256"
        }
      ],
      "name": "getDataBefore",
      "outputs": [
        {
          "internalType": "bytes",
          "name": "_value",
          "type": "bytes"
        },
        {
          "internalType": "uint256",
          "name": "_timestampRetrieved",
          "type": "uint256"
        }
      ],
      "stateMutability": "view",
      "type": "function"
    },
    {
      "inputs": [
        {
          "internalType": "bytes32",
          "name": "_queryId",
          "type": "bytes32"
        },
        {
          "internalType": "uint256",
          "name": "_timestamp",
          "type": "uint256"
        }
      ],
      "name": "getIndexForDataAfter",
      "outputs": [
        {
          "internalType": "bool",
          "name": "_found",
          "type": "bool"
        },
        {
          "internalType": "uint256",
          "name": "_index",
          "type": "uint256"
        }
      ],
      "stateMutability": "view",
      "type": "function"
    },
    {
      "inputs": [
        {
          "internalType": "bytes32",
          "name": "_queryId",
          "type": "bytes32"
        },
        {
          "internalType": "uint256",
          "name": "_timestamp",
          "type": "uint256"
        }
      ],
      "name": "getIndexForDataBefore",
      "outputs": [
        {
          "internalType": "bool",
          "name": "_found",
          "type": "bool"
        },
        {
          "internalType": "uint256",
          "name": "_index",
          "type": "uint256"
        }
      ],
      "stateMutability": "view",
      "type": "function"
    },
    {
      "inputs": [
        {
          "internalType": "bytes32",
          "name": "_queryId",
          "type": "bytes32"
        },
        {
          "internalType": "uint256",
          "name": "_timestamp",
          "type": "uint256"
        },
        {
          "internalType": "uint256",
          "name": "_maxAge",
          "type": "uint256"
        },
        {
          "internalType": "uint256",
          "name": "_maxCount",
          "type": "uint256"
        }
      ],
      "name": "getMultipleValuesBefore",
      "outputs": [
        {
          "internalType": "bytes[]",
          "name": "_values",
          "type": "bytes[]"
        },
        {
          "internalType": "uint256[]",
          "name": "_timestamps",
          "type": "uint256[]"
        }
      ],
      "stateMutability": "view",
      "type": "function"
    },
    {
      "inputs": [
        {
          "internalType": "bytes32",
          "name": "_queryId",
          "type": "bytes32"
        }
      ],
      "name": "getNewValueCountbyQueryId",
      "outputs": [
        {
          "internalType": "uint256",
          "name": "",
          "type": "uint256"
        }
      ],
      "stateMutability": "view",
      "type": "function"
    },
    {
      "inputs": [
        {
          "internalType": "bytes32",
          "name": "_queryId",
          "type": "bytes32"
        },
        {
          "internalType": "uint256",
          "name": "_timestamp",
          "type": "uint256"
        }
      ],
      "name": "getReporterByTimestamp",
      "outputs": [
        {
          "internalType": "address",
          "name": "",
          "type": "address"
        }
      ],
      "stateMutability": "view",
      "type": "function"
    },
    {
      "inputs": [
        {
          "internalType": "bytes32",
          "name": "_queryId",
          "type": "bytes32"
        },
        {
          "internalType": "uint256",
          "name": "_index",
          "type": "uint256"
        }
      ],
      "name": "getTimestampbyQueryIdandIndex",
      "outputs": [
        {
          "internalType": "uint256",
          "name": "",
          "type": "uint256"
        }
      ],
      "stateMutability": "view",
      "type": "function"
    },
    {
      "inputs": [],
      "name": "idMappingContract",
      "outputs": [
        {
          "internalType": "contract IMappingContract",
          "name": "",
          "type": "address"
        }
      ],
      "stateMutability": "view",
      "type": "function"
    },
    {
      "inputs": [
        {
          "internalType": "bytes32",
          "name": "_queryId",
          "type": "bytes32"
        },
        {
          "internalType": "uint256",
          "name": "_timestamp",
          "type": "uint256"
        }
      ],
      "name": "isInDispute",
      "outputs": [
        {
          "internalType": "bool",
          "name": "",
          "type": "bool"
        }
      ],
      "stateMutability": "view",
      "type": "function"
    },
    {
      "inputs": [
        {
          "internalType": "bytes32",
          "name": "_queryId",
          "type": "bytes32"
        },
        {
          "internalType": "uint256",
          "name": "_timestamp",
          "type": "uint256"
        }
      ],
      "name": "retrieveData",
      "outputs": [
        {
          "internalType": "bytes",
          "name": "",
          "type": "bytes"
        }
      ],
      "stateMutability": "view",
      "type": "function"
    },
    {
      "inputs": [
        {
          "internalType": "address",
          "name": "_addy",
          "type": "address"
        }
      ],
      "name": "setIdMappingContract",
      "outputs": [],
      "stateMutability": "nonpayable",
      "type": "function"
    },
    {
      "inputs": [],
      "name": "tellor",
      "outputs": [
        {
          "internalType": "contract ITellor",
          "name": "",
          "type": "address"
        }
      ],
      "stateMutability": "view",
      "type": "function"
    },
    {
      "inputs": [
        {
          "internalType": "bytes32",
          "name": "_id",
          "type": "bytes32"
        }
      ],
      "name": "valueFor",
      "outputs": [
        {
          "internalType": "int256",
          "name": "_value",
          "type": "int256"
        },
        {
          "internalType": "uint256",
          "name": "_timestamp",
          "type": "uint256"
        },
        {
          "internalType": "uint256",
          "name": "_statusCode",
          "type": "uint256"
        }
      ],
      "stateMutability": "view",
      "type": "function"
    }
  ],
  "bytecode": "0x60806040523480156200001157600080fd5b5060405162001fef38038062001fef8339818101604052810190620000379190620000ea565b80806000806101000a81548173ffffffffffffffffffffffffffffffffffffffff021916908373ffffffffffffffffffffffffffffffffffffffff16021790555050506200011c565b600080fd5b600073ffffffffffffffffffffffffffffffffffffffff82169050919050565b6000620000b28262000085565b9050919050565b620000c481620000a5565b8114620000d057600080fd5b50565b600081519050620000e481620000b9565b92915050565b60006020828403121562000103576200010262000080565b5b60006200011384828501620000d3565b91505092915050565b611ec3806200012c6000396000f3fe608060405234801561001057600080fd5b50600436106100f55760003560e01c80637de921b411610097578063e07c548611610066578063e07c5486146102c3578063f66f49c3146102f3578063f78eea8314610324578063fcd4a54614610356576100f5565b80637de921b414610214578063a792765f14610232578063c5958af914610263578063ce5e11bf14610293576100f5565b80632af8aae0116100d35780632af8aae01461016557806344e87f911461018357806364ee3c6d146101b357806377b03e0d146101e4576100f5565b8063193b505b146100fa5780631959ad5b146101165780632944908514610134575b600080fd5b610114600480360381019061010f91906111be565b610387565b005b61011e610426565b60405161012b919061124a565b60405180910390f35b61014e600480360381019061014991906112d1565b61044a565b60405161015c92919061133b565b60405180910390f35b61016d6104f3565b60405161017a9190611385565b60405180910390f35b61019d600480360381019061019891906112d1565b610519565b6040516101aa91906113a0565b60405180910390f35b6101cd60048036038101906101c891906112d1565b6105c0565b6040516101db92919061144b565b60405180910390f35b6101fe60048036038101906101f9919061147b565b61061a565b60405161020b91906114a8565b60405180910390f35b61021c6106be565b60405161022991906114a8565b60405180910390f35b61024c600480360381019061024791906112d1565b610777565b60405161025a92919061144b565b60405180910390f35b61027d600480360381019061027891906112d1565b61082f565b60405161028a91906114c3565b60405180910390f35b6102ad60048036038101906102a891906112d1565b6108da565b6040516102ba91906114a8565b60405180910390f35b6102dd60048036038101906102d891906112d1565b610981565b6040516102ea91906114f4565b60405180910390f35b61030d600480360381019061030891906112d1565b610a28565b60405161031b92919061133b565b60405180910390f35b61033e6004803603810190610339919061147b565b610c0c565b60405161034d93929190611528565b60405180910390f35b610370600480360381019061036b919061155f565b610d10565b60405161037e929190611790565b60405180910390f35b600073ffffffffffffffffffffffffffffffffffffffff16600160009054906101000a900473ffffffffffffffffffffffffffffffffffffffff1673ffffffffffffffffffffffffffffffffffffffff16146103e257600080fd5b80600160006101000a81548173ffffffffffffffffffffffffffffffffffffffff021916908373ffffffffffffffffffffffffffffffffffffffff16021790555050565b60008054906101000a900473ffffffffffffffffffffffffffffffffffffffff1681565b60008060008054906101000a900473ffffffffffffffffffffffffffffffffffffffff1673ffffffffffffffffffffffffffffffffffffffff16632944908585856040518363ffffffff1660e01b81526004016104a89291906117d6565b6040805180830381865afa1580156104c4573d6000803e3d6000fd5b505050506040513d601f19601f820116820180604052508101906104e89190611840565b915091509250929050565b600160009054906101000a900473ffffffffffffffffffffffffffffffffffffffff1681565b60008060009054906101000a900473ffffffffffffffffffffffffffffffffffffffff1673ffffffffffffffffffffffffffffffffffffffff166344e87f9184846040518363ffffffff1660e01b81526004016105779291906117d6565b602060405180830381865afa158015610594573d6000803e3d6000fd5b505050506040513d601f19601f820116820180604052508101906105b89190611880565b905092915050565b606060008060006105d18686610a28565b91509150816105f85760006040518060200160405280600081525090935093505050610613565b61060286826108da565b925061060e868461082f565b935050505b9250929050565b60008060009054906101000a900473ffffffffffffffffffffffffffffffffffffffff1673ffffffffffffffffffffffffffffffffffffffff166377b03e0d836040518263ffffffff1660e01b815260040161067691906118ad565b602060405180830381865afa158015610693573d6000803e3d6000fd5b505050506040513d601f19601f820116820180604052508101906106b791906118c8565b9050919050565b6000806040516020016106d09061199e565b6040516020818303038152906040526040516020016106ef9190611a1d565b6040516020818303038152906040529050600081805190602001209050600080610726836104b0426107219190611a81565b610777565b915091506000810361073f576000945050505050610774565b62015180814261074f9190611a81565b1061075957600080fd5b8180602001905181019061076d91906118c8565b9450505050505b90565b606060008060009054906101000a900473ffffffffffffffffffffffffffffffffffffffff1673ffffffffffffffffffffffffffffffffffffffff1663a792765f85856040518363ffffffff1660e01b81526004016107d79291906117d6565b600060405180830381865afa1580156107f4573d6000803e3d6000fd5b505050506040513d6000823e3d601f19601f8201168201806040525081019061081d9190611bdb565b90915080925081935050509250929050565b606060008054906101000a900473ffffffffffffffffffffffffffffffffffffffff1673ffffffffffffffffffffffffffffffffffffffff1663c5958af984846040518363ffffffff1660e01b815260040161088c9291906117d6565b600060405180830381865afa1580156108a9573d6000803e3d6000fd5b505050506040513d6000823e3d601f19601f820116820180604052508101906108d29190611c4a565b905092915050565b60008060009054906101000a900473ffffffffffffffffffffffffffffffffffffffff1673ffffffffffffffffffffffffffffffffffffffff1663ce5e11bf84846040518363ffffffff1660e01b81526004016109389291906117d6565b602060405180830381865afa158015610955573d6000803e3d6000fd5b505050506040513d601f19601f8201168201806040525081019061097991906118c8565b905092915050565b60008060009054906101000a900473ffffffffffffffffffffffffffffffffffffffff1673ffffffffffffffffffffffffffffffffffffffff1663e07c548684846040518363ffffffff1660e01b81526004016109df9291906117d6565b602060405180830381865afa1580156109fc573d6000803e3d6000fd5b505050506040513d601f19601f82011682018060405250810190610a209190611ca8565b905092915050565b6000806000610a368561061a565b905060008103610a4d576000809250925050610c05565b8080610a5890611cd5565b91505060006001905060008060008490506000610a758a836108da565b9050888111610a905760008097509750505050505050610c05565b610a9a8a846108da565b905088811115610aa957600094505b5b8415610b715760028383610abe9190611cfe565b610ac89190611d61565b9350610ad48a856108da565b905088811115610b1e576000610af68b600187610af19190611a81565b6108da565b9050898111610b085760009550610b18565b600185610b159190611a81565b92505b50610b6c565b6000610b368b600187610b319190611cfe565b6108da565b905089811115610b5a57600095508480610b4f90611d92565b955050809150610b6a565b600185610b679190611cfe565b93505b505b610aaa565b610b7b8a82610519565b610b915760018497509750505050505050610c05565b5b610b9c8a82610519565b8015610ba757508584105b15610bcb578380610bb790611d92565b945050610bc48a856108da565b9050610b92565b8584148015610be05750610bdf8a82610519565b5b15610bf75760008097509750505050505050610c05565b600184975097505050505050505b9250929050565b600080600080600160009054906101000a900473ffffffffffffffffffffffffffffffffffffffff1673ffffffffffffffffffffffffffffffffffffffff166387a475fd866040518263ffffffff1660e01b8152600401610c6d91906118ad565b602060405180830381865afa158015610c8a573d6000803e3d6000fd5b505050506040513d601f19601f82011682018060405250810190610cae9190611def565b90506060610cc882600142610cc39190611cfe565b610777565b809550819250505060008403610ceb576000806101949450945094505050610d09565b6000610cf6826110e4565b9050809550858560c89550955095505050505b9193909250565b606080600080610d2b888789610d269190611a81565b610a28565b9150915081610dd857600067ffffffffffffffff811115610d4f57610d4e611abf565b5b604051908082528060200260200182016040528015610d8257816020015b6060815260200190600190039081610d6d5790505b50600067ffffffffffffffff811115610d9e57610d9d611abf565b5b604051908082528060200260200182016040528015610dcc5781602001602082028036833780820191505090505b509350935050506110db565b6000610de4898961044a565b809250819450505082610e9657600067ffffffffffffffff811115610e0c57610e0b611abf565b5b604051908082528060200260200182016040528015610e3f57816020015b6060815260200190600190039081610e2a5790505b50600067ffffffffffffffff811115610e5b57610e5a611abf565b5b604051908082528060200260200182016040528015610e895781602001602082028036833780820191505090505b50945094505050506110db565b60008060008867ffffffffffffffff811115610eb557610eb4611abf565b5b604051908082528060200260200182016040528015610ee35781602001602082028036833780820191505090505b5090505b8883108015610f0c57508482600186610f009190611cfe565b610f0a9190611a81565b115b15610f7b576000610f288d8487610f239190611a81565b6108da565b9050610f348d82610519565b610f675780828581518110610f4c57610f4b611e1c565b5b6020026020010181815250508380610f6390611d92565b9450505b8280610f7290611d92565b93505050610ee7565b60008367ffffffffffffffff811115610f9757610f96611abf565b5b604051908082528060200260200182016040528015610fca57816020015b6060815260200190600190039081610fb55790505b50905060008467ffffffffffffffff811115610fe957610fe8611abf565b5b6040519080825280602002602001820160405280156110175781602001602082028036833780820191505090505b50905060005b858110156110cb5783816001886110349190611a81565b61103e9190611a81565b8151811061104f5761104e611e1c565b5b602002602001015182828151811061106a57611069611e1c565b5b60200260200101818152505061109a8f83838151811061108d5761108c611e1c565b5b602002602001015161082f565b8382815181106110ad576110ac611e1c565b5b602002602001018190525080806110c390611d92565b91505061101d565b5081819950995050505050505050505b94509492505050565b600080600090505b82518110156111465782818151811061110857611107611e1c565b5b602001015160f81c60f81b60f81c60ff16610100836111279190611e4b565b6111319190611cfe565b9150808061113e90611d92565b9150506110ec565b50919050565b6000604051905090565b600080fd5b600080fd5b600073ffffffffffffffffffffffffffffffffffffffff82169050919050565b600061118b82611160565b9050919050565b61119b81611180565b81146111a657600080fd5b50565b6000813590506111b881611192565b92915050565b6000602082840312156111d4576111d3611156565b5b60006111e2848285016111a9565b91505092915050565b6000819050919050565b600061121061120b61120684611160565b6111eb565b611160565b9050919050565b6000611222826111f5565b9050919050565b600061123482611217565b9050919050565b61124481611229565b82525050565b600060208201905061125f600083018461123b565b92915050565b6000819050919050565b61127881611265565b811461128357600080fd5b50565b6000813590506112958161126f565b92915050565b6000819050919050565b6112ae8161129b565b81146112b957600080fd5b50565b6000813590506112cb816112a5565b92915050565b600080604083850312156112e8576112e7611156565b5b60006112f685828601611286565b9250506020611307858286016112bc565b9150509250929050565b60008115159050919050565b61132681611311565b82525050565b6113358161129b565b82525050565b6000604082019050611350600083018561131d565b61135d602083018461132c565b9392505050565b600061136f82611217565b9050919050565b61137f81611364565b82525050565b600060208201905061139a6000830184611376565b92915050565b60006020820190506113b5600083018461131d565b92915050565b600081519050919050565b600082825260208201905092915050565b60005b838110156113f55780820151818401526020810190506113da565b60008484015250505050565b6000601f19601f8301169050919050565b600061141d826113bb565b61142781856113c6565b93506114378185602086016113d7565b61144081611401565b840191505092915050565b600060408201905081810360008301526114658185611412565b9050611474602083018461132c565b9392505050565b60006020828403121561149157611490611156565b5b600061149f84828501611286565b91505092915050565b60006020820190506114bd600083018461132c565b92915050565b600060208201905081810360008301526114dd8184611412565b905092915050565b6114ee81611180565b82525050565b600060208201905061150960008301846114e5565b92915050565b6000819050919050565b6115228161150f565b82525050565b600060608201905061153d6000830186611519565b61154a602083018561132c565b611557604083018461132c565b949350505050565b6000806000806080858703121561157957611578611156565b5b600061158787828801611286565b9450506020611598878288016112bc565b93505060406115a9878288016112bc565b92505060606115ba878288016112bc565b91505092959194509250565b600081519050919050565b600082825260208201905092915050565b6000819050602082019050919050565b600082825260208201905092915050565b600061160e826113bb565b61161881856115f2565b93506116288185602086016113d7565b61163181611401565b840191505092915050565b60006116488383611603565b905092915050565b6000602082019050919050565b6000611668826115c6565b61167281856115d1565b935083602082028501611684856115e2565b8060005b858110156116c057848403895281516116a1858261163c565b94506116ac83611650565b925060208a01995050600181019050611688565b50829750879550505050505092915050565b600081519050919050565b600082825260208201905092915050565b6000819050602082019050919050565b6117078161129b565b82525050565b600061171983836116fe565b60208301905092915050565b6000602082019050919050565b600061173d826116d2565b61174781856116dd565b9350611752836116ee565b8060005b8381101561178357815161176a888261170d565b975061177583611725565b925050600181019050611756565b5085935050505092915050565b600060408201905081810360008301526117aa818561165d565b905081810360208301526117be8184611732565b90509392505050565b6117d081611265565b82525050565b60006040820190506117eb60008301856117c7565b6117f8602083018461132c565b9392505050565b61180881611311565b811461181357600080fd5b50565b600081519050611825816117ff565b92915050565b60008151905061183a816112a5565b92915050565b6000806040838503121561185757611856611156565b5b600061186585828601611816565b92505060206118768582860161182b565b9150509250929050565b60006020828403121561189657611895611156565b5b60006118a484828501611816565b91505092915050565b60006020820190506118c260008301846117c7565b92915050565b6000602082840312156118de576118dd611156565b5b60006118ec8482850161182b565b91505092915050565b600082825260208201905092915050565b7f6274630000000000000000000000000000000000000000000000000000000000600082015250565b600061193c6003836118f5565b915061194782611906565b602082019050919050565b7f7573640000000000000000000000000000000000000000000000000000000000600082015250565b60006119886003836118f5565b915061199382611952565b602082019050919050565b600060408201905081810360008301526119b78161192f565b905081810360208301526119ca8161197b565b9050919050565b7f53706f7450726963650000000000000000000000000000000000000000000000600082015250565b6000611a076009836118f5565b9150611a12826119d1565b602082019050919050565b60006040820190508181036000830152611a36816119fa565b90508181036020830152611a4a8184611412565b905092915050565b7f4e487b7100000000000000000000000000000000000000000000000000000000600052601160045260246000fd5b6000611a8c8261129b565b9150611a978361129b565b9250828203905081811115611aaf57611aae611a52565b5b92915050565b600080fd5b600080fd5b7f4e487b7100000000000000000000000000000000000000000000000000000000600052604160045260246000fd5b611af782611401565b810181811067ffffffffffffffff82111715611b1657611b15611abf565b5b80604052505050565b6000611b2961114c565b9050611b358282611aee565b919050565b600067ffffffffffffffff821115611b5557611b54611abf565b5b611b5e82611401565b9050602081019050919050565b6000611b7e611b7984611b3a565b611b1f565b905082815260208101848484011115611b9a57611b99611aba565b5b611ba58482856113d7565b509392505050565b600082601f830112611bc257611bc1611ab5565b5b8151611bd2848260208601611b6b565b91505092915050565b600080600060608486031215611bf457611bf3611156565b5b6000611c0286828701611816565b935050602084015167ffffffffffffffff811115611c2357611c2261115b565b5b611c2f86828701611bad565b9250506040611c408682870161182b565b9150509250925092565b600060208284031215611c6057611c5f611156565b5b600082015167ffffffffffffffff811115611c7e57611c7d61115b565b5b611c8a84828501611bad565b91505092915050565b600081519050611ca281611192565b92915050565b600060208284031215611cbe57611cbd611156565b5b6000611ccc84828501611c93565b91505092915050565b6000611ce08261129b565b915060008203611cf357611cf2611a52565b5b600182039050919050565b6000611d098261129b565b9150611d148361129b565b9250828201905080821115611d2c57611d2b611a52565b5b92915050565b7f4e487b7100000000000000000000000000000000000000000000000000000000600052601260045260246000fd5b6000611d6c8261129b565b9150611d778361129b565b925082611d8757611d86611d32565b5b828204905092915050565b6000611d9d8261129b565b91507fffffffffffffffffffffffffffffffffffffffffffffffffffffffffffffffff8203611dcf57611dce611a52565b5b600182019050919050565b600081519050611de98161126f565b92915050565b600060208284031215611e0557611e04611156565b5b6000611e1384828501611dda565b91505092915050565b7f4e487b7100000000000000000000000000000000000000000000000000000000600052603260045260246000fd5b6000611e568261129b565b9150611e618361129b565b9250828202611e6f8161129b565b91508282048414831517611e8657611e85611a52565b5b509291505056fea2646970667358221220d9f1c348897c96e5b4a2d5fe4020715942a56d8b8ff511edc6deda9dfcaf1cc364736f6c63430008120033",
  "linkReferences": {},
  "deployedLinkReferences": {}
}